{
  "contractName": "DwitterManage",
  "abi": [
    {
      "anonymous": false,
      "inputs": [
        {
          "indexed": false,
          "internalType": "string",
          "name": "content",
          "type": "string"
        },
        {
          "indexed": false,
          "internalType": "string",
          "name": "hashtag",
          "type": "string"
        },
        {
          "indexed": false,
          "internalType": "uint256",
          "name": "timestamp",
          "type": "uint256"
        }
      ],
      "name": "NewDweetAdd",
      "type": "event"
    },
    {
      "anonymous": false,
      "inputs": [
        {
          "indexed": false,
          "internalType": "string",
          "name": "userName",
          "type": "string"
        },
        {
          "indexed": false,
          "internalType": "address",
          "name": "pkey",
          "type": "address"
        }
      ],
      "name": "NewUserAdd",
      "type": "event"
    },
    {
      "anonymous": false,
      "inputs": [
        {
          "indexed": false,
          "internalType": "uint256",
          "name": "id",
          "type": "uint256"
        },
        {
          "indexed": false,
          "internalType": "uint256",
          "name": "timestamp",
          "type": "uint256"
        }
      ],
      "name": "deleted",
      "type": "event"
    },
    {
      "anonymous": false,
      "inputs": [
        {
          "indexed": false,
          "internalType": "uint256",
          "name": "id",
          "type": "uint256"
        },
        {
          "indexed": false,
          "internalType": "address",
          "name": "downvoter",
          "type": "address"
        }
      ],
      "name": "downvoted",
      "type": "event"
    },
    {
      "anonymous": false,
      "inputs": [
        {
          "indexed": false,
          "internalType": "uint256",
          "name": "followers",
          "type": "uint256"
        },
        {
          "indexed": false,
          "internalType": "uint256",
          "name": "following",
          "type": "uint256"
        }
      ],
      "name": "followed",
      "type": "event"
    },
    {
      "anonymous": false,
      "inputs": [
        {
          "indexed": false,
          "internalType": "uint256",
          "name": "id",
          "type": "uint256"
        },
        {
          "indexed": false,
          "internalType": "address",
          "name": "reporter",
          "type": "address"
        }
      ],
      "name": "reported",
      "type": "event"
    },
    {
      "anonymous": false,
      "inputs": [
        {
          "indexed": false,
          "internalType": "uint256",
          "name": "id",
          "type": "uint256"
        },
        {
          "indexed": false,
          "internalType": "address",
          "name": "upvoter",
          "type": "address"
        }
      ],
      "name": "upvoted",
      "type": "event"
    },
    {
      "inputs": [
        {
          "internalType": "address",
          "name": "",
          "type": "address"
        }
      ],
      "name": "accountCheck",
      "outputs": [
        {
          "internalType": "bool",
          "name": "",
          "type": "bool"
        }
      ],
      "stateMutability": "view",
      "type": "function",
      "constant": true
    },
    {
      "inputs": [
        {
          "internalType": "string",
          "name": "_content",
          "type": "string"
        },
        {
          "internalType": "string",
          "name": "_hashtag",
          "type": "string"
        }
      ],
      "name": "addNewDweet",
      "outputs": [],
      "stateMutability": "nonpayable",
      "type": "function"
    },
    {
      "inputs": [
        {
          "internalType": "address",
          "name": "",
          "type": "address"
        }
      ],
      "name": "addressToId",
      "outputs": [
        {
          "internalType": "uint256",
          "name": "",
          "type": "uint256"
        }
      ],
      "stateMutability": "view",
      "type": "function",
      "constant": true
    },
    {
      "inputs": [
        {
          "internalType": "address",
          "name": "",
          "type": "address"
        }
      ],
      "name": "dweetCountAuthor",
      "outputs": [
        {
          "internalType": "uint256",
          "name": "",
          "type": "uint256"
        }
      ],
      "stateMutability": "view",
      "type": "function",
      "constant": true
    },
    {
      "inputs": [
        {
          "internalType": "uint256",
          "name": "",
          "type": "uint256"
        }
      ],
      "name": "dweetToAuthor",
      "outputs": [
        {
          "internalType": "address",
          "name": "",
          "type": "address"
        }
      ],
      "stateMutability": "view",
      "type": "function",
      "constant": true
    },
    {
      "inputs": [],
      "name": "dweet_count",
      "outputs": [
        {
          "internalType": "uint256",
          "name": "",
          "type": "uint256"
        }
      ],
      "stateMutability": "view",
      "type": "function",
      "constant": true
    },
    {
      "inputs": [
        {
          "internalType": "uint256",
          "name": "",
          "type": "uint256"
        }
      ],
      "name": "dweets",
      "outputs": [
        {
          "internalType": "uint256",
          "name": "id",
          "type": "uint256"
        },
        {
          "internalType": "string",
          "name": "content",
          "type": "string"
        },
        {
          "internalType": "address",
          "name": "author",
          "type": "address"
        },
        {
          "internalType": "uint256",
          "name": "timestamp",
          "type": "uint256"
        },
        {
          "internalType": "uint256",
          "name": "upvotes",
          "type": "uint256"
        },
        {
          "internalType": "uint256",
          "name": "reports",
          "type": "uint256"
        },
        {
          "internalType": "string",
          "name": "hashtag",
          "type": "string"
        },
        {
          "internalType": "bool",
          "name": "deleted",
          "type": "bool"
        }
      ],
      "stateMutability": "view",
      "type": "function",
      "constant": true
    },
    {
      "inputs": [
        {
          "internalType": "uint256",
          "name": "",
          "type": "uint256"
        }
      ],
      "name": "idToUsername",
      "outputs": [
        {
          "internalType": "string",
          "name": "",
          "type": "string"
        }
      ],
      "stateMutability": "view",
      "type": "function",
      "constant": true
    },
    {
      "inputs": [
        {
          "internalType": "string",
          "name": "_firstName",
          "type": "string"
        },
        {
          "internalType": "string",
          "name": "_lastName",
          "type": "string"
        },
        {
          "internalType": "string",
          "name": "_userName",
          "type": "string"
        },
        {
          "internalType": "string",
          "name": "_bio",
          "type": "string"
        }
      ],
      "name": "registerNewUser",
      "outputs": [],
      "stateMutability": "nonpayable",
      "type": "function"
    },
    {
      "inputs": [
        {
          "internalType": "address",
          "name": "",
          "type": "address"
        },
        {
          "internalType": "uint256",
          "name": "",
          "type": "uint256"
        }
      ],
      "name": "reportsList",
      "outputs": [
        {
          "internalType": "uint256",
          "name": "",
          "type": "uint256"
        }
      ],
      "stateMutability": "view",
      "type": "function",
      "constant": true
    },
    {
      "inputs": [
        {
          "internalType": "address",
          "name": "",
          "type": "address"
        },
        {
          "internalType": "uint256",
          "name": "",
          "type": "uint256"
        }
      ],
      "name": "upvotesList",
      "outputs": [
        {
          "internalType": "uint256",
          "name": "",
          "type": "uint256"
        }
      ],
      "stateMutability": "view",
      "type": "function",
      "constant": true
    },
    {
      "inputs": [
        {
          "internalType": "string",
          "name": "",
          "type": "string"
        }
      ],
      "name": "userNameCheck",
      "outputs": [
        {
          "internalType": "bool",
          "name": "",
          "type": "bool"
        }
      ],
      "stateMutability": "view",
      "type": "function",
      "constant": true
    },
    {
      "inputs": [
        {
          "internalType": "string",
          "name": "",
          "type": "string"
        }
      ],
      "name": "userNameToId",
      "outputs": [
        {
          "internalType": "uint256",
          "name": "",
          "type": "uint256"
        }
      ],
      "stateMutability": "view",
      "type": "function",
      "constant": true
    },
    {
      "inputs": [],
      "name": "user_count",
      "outputs": [
        {
          "internalType": "uint256",
          "name": "",
          "type": "uint256"
        }
      ],
      "stateMutability": "view",
      "type": "function",
      "constant": true
    },
    {
      "inputs": [
        {
          "internalType": "uint256",
          "name": "",
          "type": "uint256"
        }
      ],
      "name": "users",
      "outputs": [
        {
          "internalType": "uint256",
          "name": "id",
          "type": "uint256"
        },
        {
          "internalType": "address",
          "name": "pkey",
          "type": "address"
        },
        {
          "internalType": "string",
          "name": "firstname",
          "type": "string"
        },
        {
          "internalType": "string",
          "name": "lastname",
          "type": "string"
        },
        {
          "internalType": "string",
          "name": "userName",
          "type": "string"
        },
        {
          "internalType": "string",
          "name": "bio",
          "type": "string"
        },
        {
          "internalType": "uint256",
          "name": "following",
          "type": "uint256"
        },
        {
          "internalType": "uint256",
          "name": "followers",
          "type": "uint256"
        }
      ],
      "stateMutability": "view",
      "type": "function",
      "constant": true
    },
    {
      "inputs": [
        {
          "internalType": "address",
          "name": "user",
          "type": "address"
        }
      ],
      "name": "getUpvotesList",
      "outputs": [
        {
          "internalType": "uint256[]",
          "name": "ids",
          "type": "uint256[]"
        }
      ],
      "stateMutability": "view",
      "type": "function",
      "constant": true
    },
    {
      "inputs": [
        {
          "internalType": "address",
          "name": "user",
          "type": "address"
        }
      ],
      "name": "getReportsList",
      "outputs": [
        {
          "internalType": "uint256[]",
          "name": "ids",
          "type": "uint256[]"
        }
      ],
      "stateMutability": "view",
      "type": "function",
      "constant": true
    },
    {
      "inputs": [
        {
          "internalType": "uint256",
          "name": "id",
          "type": "uint256"
        }
      ],
      "name": "upvoteDweet",
      "outputs": [],
      "stateMutability": "nonpayable",
      "type": "function"
    },
    {
      "inputs": [
        {
          "internalType": "uint256",
          "name": "id",
          "type": "uint256"
        }
      ],
      "name": "downvoteDweet",
      "outputs": [],
      "stateMutability": "nonpayable",
      "type": "function"
    },
    {
      "inputs": [
        {
          "internalType": "uint256",
          "name": "id",
          "type": "uint256"
        }
      ],
      "name": "reportDweet",
      "outputs": [],
      "stateMutability": "nonpayable",
      "type": "function"
    },
    {
      "inputs": [
        {
          "internalType": "uint256",
          "name": "id",
          "type": "uint256"
        }
      ],
      "name": "deleteDweet",
      "outputs": [],
      "stateMutability": "nonpayable",
      "type": "function"
    },
    {
      "inputs": [
        {
          "internalType": "string",
          "name": "_userName",
          "type": "string"
        }
      ],
      "name": "search",
      "outputs": [
        {
          "internalType": "string",
          "name": "_firstname",
          "type": "string"
        },
        {
          "internalType": "string",
          "name": "_lastName",
          "type": "string"
        },
        {
          "internalType": "address",
          "name": "pkey",
          "type": "address"
        },
        {
          "internalType": "string",
          "name": "_bio",
          "type": "string"
        },
        {
          "internalType": "uint256",
          "name": "followers",
          "type": "uint256"
        },
        {
          "internalType": "uint256",
          "name": "following",
          "type": "uint256"
        }
      ],
      "stateMutability": "view",
      "type": "function",
      "constant": true
    },
    {
      "inputs": [
        {
          "internalType": "uint256",
          "name": "id",
          "type": "uint256"
        }
      ],
      "name": "followUser",
      "outputs": [],
      "stateMutability": "nonpayable",
      "type": "function"
    }
  ],
  "bytecode": "0x60806040526000805560006001557fffffffffffffffffffffffffffffffffffffffffffffffffffffffffffffffff600d5534801561003d57600080fd5b50612a4c8061004d6000396000f3fe608060405234801561001057600080fd5b506004361061014d5760003560e01c8063820ed086116100c3578063c2a698bd1161007c578063c2a698bd14610421578063cb0e0d7d1461043d578063d0c700821461046d578063dffc16d714610489578063e4d2c3cf146104b9578063f98be581146104e95761014d565b8063820ed0861461030e578063902b4fa814610343578063aee8406414610373578063b2e36aba146103a3578063ba1fc1f7146103d3578063bb805f69146104035761014d565b806337dc190c1161011557806337dc190c1461020d57806339bdca1f146102445780634a3e8d181461027457806356606513146102a4578063668df506146102d45780637893d2e2146102f05761014d565b8063022accd11461015257806302799d791461016e5780630a3c68011461019e57806312c02205146101ba578063365b98b2146101d6575b600080fd5b61016c600480360381019061016791906122e0565b610505565b005b6101886004803603810190610183919061210b565b6106fe565b6040516101959190612479565b60405180910390f35b6101b860048036038101906101b391906122e0565b61071e565b005b6101d460048036038101906101cf91906122e0565b6109fe565b005b6101f060048036038101906101eb91906122e0565b610b5e565b6040516102049897969594939291906125e5565b60405180910390f35b610227600480360381019061022291906122e0565b610df6565b60405161023b98979695949392919061267f565b60405180910390f35b61025e600480360381019061025991906122e0565b610f8b565b60405161026b9190612494565b60405180910390f35b61028e6004803603810190610289919061210b565b61102b565b60405161029b9190612457565b60405180910390f35b6102be60048036038101906102b99190612170565b6110c2565b6040516102cb91906125a1565b60405180910390f35b6102ee60048036038101906102e991906122e0565b6110f0565b005b6102f8611309565b60405161030591906125a1565b60405180910390f35b61032860048036038101906103239190612170565b61130f565b60405161033a969594939291906124e6565b60405180910390f35b61035d60048036038101906103589190612170565b611719565b60405161036a9190612479565b60405180910390f35b61038d6004803603810190610388919061210b565b61174f565b60405161039a91906125a1565b60405180910390f35b6103bd60048036038101906103b891906122e0565b611767565b6040516103ca919061243c565b60405180910390f35b6103ed60048036038101906103e89190612134565b61179a565b6040516103fa91906125a1565b60405180910390f35b61040b6117cb565b60405161041891906125a1565b60405180910390f35b61043b600480360381019061043691906121b1565b6117d1565b005b6104576004803603810190610452919061210b565b611a79565b60405161046491906125a1565b60405180910390f35b6104876004803603810190610482919061221d565b611a91565b005b6104a3600480360381019061049e919061210b565b611e01565b6040516104b09190612457565b60405180910390f35b6104d360048036038101906104ce9190612134565b611e98565b6040516104e091906125a1565b60405180910390f35b61050360048036038101906104fe91906122e0565b611ec9565b005b60011515600860003373ffffffffffffffffffffffffffffffffffffffff1673ffffffffffffffffffffffffffffffffffffffff16815260200190815260200160002060009054906101000a900460ff1615151461056257600080fd5b6002818154811061059c577f4e487b7100000000000000000000000000000000000000000000000000000000600052603260045260246000fd5b906000526020600020906008020160040160008154809291906105be90612874565b919050555060006105ce3361102b565b905060005b81518110156106c05782828281518110610616577f4e487b7100000000000000000000000000000000000000000000000000000000600052603260045260246000fd5b602002602001015114156106ad57600d54600b60003373ffffffffffffffffffffffffffffffffffffffff1673ffffffffffffffffffffffffffffffffffffffff168152602001908152602001600020828154811061069e577f4e487b7100000000000000000000000000000000000000000000000000000000600052603260045260246000fd5b90600052602060002001819055505b80806106b890612901565b9150506105d3565b507f46fb92b796d9c4db2a7fd3f4a84e10b858518153fb009a0892c9d0b2357bad5c82336040516106f29291906125bc565b60405180910390a15050565b60086020528060005260406000206000915054906101000a900460ff1681565b60011515600860003373ffffffffffffffffffffffffffffffffffffffff1673ffffffffffffffffffffffffffffffffffffffff16815260200190815260200160002060009054906101000a900460ff1615151461077b57600080fd5b6000600382815481106107b7577f4e487b7100000000000000000000000000000000000000000000000000000000600052603260045260246000fd5b906000526020600020906008020160010160009054906101000a900473ffffffffffffffffffffffffffffffffffffffff1690508073ffffffffffffffffffffffffffffffffffffffff163373ffffffffffffffffffffffffffffffffffffffff16141561082457600080fd5b6003828154811061085e577f4e487b7100000000000000000000000000000000000000000000000000000000600052603260045260246000fd5b9060005260206000209060080201600701600081548092919061088090612901565b91905055506000600460003373ffffffffffffffffffffffffffffffffffffffff1673ffffffffffffffffffffffffffffffffffffffff16815260200190815260200160002054905060038181548110610903577f4e487b7100000000000000000000000000000000000000000000000000000000600052603260045260246000fd5b9060005260206000209060080201600601600081548092919061092590612901565b91905055507fa484d0d270793404aad2bbd6b172b65d8537760147c8189d06bb8ee53763ef4160038481548110610985577f4e487b7100000000000000000000000000000000000000000000000000000000600052603260045260246000fd5b906000526020600020906008020160070154600383815481106109d1577f4e487b7100000000000000000000000000000000000000000000000000000000600052603260045260246000fd5b9060005260206000209060080201600601546040516109f192919061270b565b60405180910390a1505050565b60011515600860003373ffffffffffffffffffffffffffffffffffffffff1673ffffffffffffffffffffffffffffffffffffffff16815260200190815260200160002060009054906101000a900460ff16151514610a5b57600080fd5b60028181548110610a95577f4e487b7100000000000000000000000000000000000000000000000000000000600052603260045260246000fd5b90600052602060002090600802016004016000815480929190610ab790612901565b9190505550600b60003373ffffffffffffffffffffffffffffffffffffffff1673ffffffffffffffffffffffffffffffffffffffff1681526020019081526020016000208190806001815401808255809150506001900390600052602060002001600090919091909150557ffd4f1167e13edd1b7dab99a4065634d3c740bd1c9fd254ad2bcc534c52cb5fa18133604051610b539291906125bc565b60405180910390a150565b60038181548110610b6e57600080fd5b90600052602060002090600802016000915090508060000154908060010160009054906101000a900473ffffffffffffffffffffffffffffffffffffffff1690806002018054610bbd9061289e565b80601f0160208091040260200160405190810160405280929190818152602001828054610be99061289e565b8015610c365780601f10610c0b57610100808354040283529160200191610c36565b820191906000526020600020905b815481529060010190602001808311610c1957829003601f168201915b505050505090806003018054610c4b9061289e565b80601f0160208091040260200160405190810160405280929190818152602001828054610c779061289e565b8015610cc45780601f10610c9957610100808354040283529160200191610cc4565b820191906000526020600020905b815481529060010190602001808311610ca757829003601f168201915b505050505090806004018054610cd99061289e565b80601f0160208091040260200160405190810160405280929190818152602001828054610d059061289e565b8015610d525780601f10610d2757610100808354040283529160200191610d52565b820191906000526020600020905b815481529060010190602001808311610d3557829003601f168201915b505050505090806005018054610d679061289e565b80601f0160208091040260200160405190810160405280929190818152602001828054610d939061289e565b8015610de05780601f10610db557610100808354040283529160200191610de0565b820191906000526020600020905b815481529060010190602001808311610dc357829003601f168201915b5050505050908060060154908060070154905088565b60028181548110610e0657600080fd5b9060005260206000209060080201600091509050806000015490806001018054610e2f9061289e565b80601f0160208091040260200160405190810160405280929190818152602001828054610e5b9061289e565b8015610ea85780601f10610e7d57610100808354040283529160200191610ea8565b820191906000526020600020905b815481529060010190602001808311610e8b57829003601f168201915b5050505050908060020160009054906101000a900473ffffffffffffffffffffffffffffffffffffffff1690806003015490806004015490806005015490806006018054610ef59061289e565b80601f0160208091040260200160405190810160405280929190818152602001828054610f219061289e565b8015610f6e5780601f10610f4357610100808354040283529160200191610f6e565b820191906000526020600020905b815481529060010190602001808311610f5157829003601f168201915b5050505050908060070160009054906101000a900460ff16905088565b600a6020528060005260406000206000915090508054610faa9061289e565b80601f0160208091040260200160405190810160405280929190818152602001828054610fd69061289e565b80156110235780601f10610ff857610100808354040283529160200191611023565b820191906000526020600020905b81548152906001019060200180831161100657829003601f168201915b505050505081565b6060600b60008373ffffffffffffffffffffffffffffffffffffffff1673ffffffffffffffffffffffffffffffffffffffff1681526020019081526020016000208054806020026020016040519081016040528092919081815260200182805480156110b657602002820191906000526020600020905b8154815260200190600101908083116110a2575b50505050509050919050565b6005818051602081018201805184825260208301602085012081835280955050505050506000915090505481565b60011515600860003373ffffffffffffffffffffffffffffffffffffffff1673ffffffffffffffffffffffffffffffffffffffff16815260200190815260200160002060009054906101000a900460ff1615151461114d57600080fd5b60028181548110611187577f4e487b7100000000000000000000000000000000000000000000000000000000600052603260045260246000fd5b906000526020600020906008020160050160008154809291906111a990612901565b9190505550600c60003373ffffffffffffffffffffffffffffffffffffffff1673ffffffffffffffffffffffffffffffffffffffff1681526020019081526020016000208190806001815401808255809150506001900390600052602060002001600090919091909150557f048456431811ebccd10d6c5fe7acb7ec8a7f793bf28d18104b69e5fce6bd52f881336040516112459291906125bc565b60405180910390a1600a60028281548110611289577f4e487b7100000000000000000000000000000000000000000000000000000000600052603260045260246000fd5b9060005260206000209060080201600501541115611306576001600282815481106112dd577f4e487b7100000000000000000000000000000000000000000000000000000000600052603260045260246000fd5b906000526020600020906008020160070160006101000a81548160ff0219169083151502179055505b50565b60005481565b60608060006060600080866001151560098260405161132e9190612425565b908152602001604051809103902060009054906101000a900460ff1615151461135657600080fd5b60006005896040516113689190612425565b9081526020016040518091039020549050600381815481106113b3577f4e487b7100000000000000000000000000000000000000000000000000000000600052603260045260246000fd5b9060005260206000209060080201600201600382815481106113fe577f4e487b7100000000000000000000000000000000000000000000000000000000600052603260045260246000fd5b906000526020600020906008020160030160038381548110611449577f4e487b7100000000000000000000000000000000000000000000000000000000600052603260045260246000fd5b906000526020600020906008020160010160009054906101000a900473ffffffffffffffffffffffffffffffffffffffff16600384815481106114b5577f4e487b7100000000000000000000000000000000000000000000000000000000600052603260045260246000fd5b906000526020600020906008020160050160038581548110611500577f4e487b7100000000000000000000000000000000000000000000000000000000600052603260045260246000fd5b9060005260206000209060080201600701546003868154811061154c577f4e487b7100000000000000000000000000000000000000000000000000000000600052603260045260246000fd5b90600052602060002090600802016006015485805461156a9061289e565b80601f01602080910402602001604051908101604052809291908181526020018280546115969061289e565b80156115e35780601f106115b8576101008083540402835291602001916115e3565b820191906000526020600020905b8154815290600101906020018083116115c657829003601f168201915b505050505095508480546115f69061289e565b80601f01602080910402602001604051908101604052809291908181526020018280546116229061289e565b801561166f5780601f106116445761010080835404028352916020019161166f565b820191906000526020600020905b81548152906001019060200180831161165257829003601f168201915b505050505094508280546116829061289e565b80601f01602080910402602001604051908101604052809291908181526020018280546116ae9061289e565b80156116fb5780601f106116d0576101008083540402835291602001916116fb565b820191906000526020600020905b8154815290600101906020018083116116de57829003601f168201915b50505050509250975097509750975097509750505091939550919395565b6009818051602081018201805184825260208301602085012081835280955050505050506000915054906101000a900460ff1681565b60076020528060005260406000206000915090505481565b60066020528060005260406000206000915054906101000a900473ffffffffffffffffffffffffffffffffffffffff1681565b600c60205281600052604060002081815481106117b657600080fd5b90600052602060002001600091509150505481565b60015481565b60011515600860003373ffffffffffffffffffffffffffffffffffffffff1673ffffffffffffffffffffffffffffffffffffffff16815260200190815260200160002060009054906101000a900460ff1615151461182e57600080fd5b600260405180610100016040528060005481526020018481526020013373ffffffffffffffffffffffffffffffffffffffff16815260200142815260200160008152602001600081526020018381526020016000151581525090806001815401808255809150506001900390600052602060002090600802016000909190919091506000820151816000015560208201518160010190805190602001906118d6929190611fd6565b5060408201518160020160006101000a81548173ffffffffffffffffffffffffffffffffffffffff021916908373ffffffffffffffffffffffffffffffffffffffff160217905550606082015181600301556080820151816004015560a0820151816005015560c0820151816006019080519060200190611958929190611fd6565b5060e08201518160070160006101000a81548160ff021916908315150217905550505033600660008054815260200190815260200160002060006101000a81548173ffffffffffffffffffffffffffffffffffffffff021916908373ffffffffffffffffffffffffffffffffffffffff160217905550600760003373ffffffffffffffffffffffffffffffffffffffff1673ffffffffffffffffffffffffffffffffffffffff1681526020019081526020016000206000815480929190611a1e90612901565b9190505550600080815480929190611a3590612901565b91905055507facab41ac617121bd4fd2bc199121ad1cad61a00e8688e0d655009a3aea3a86fe828242604051611a6d9392919061255c565b60405180910390a15050565b60046020528060005260406000206000915090505481565b60001515600860003373ffffffffffffffffffffffffffffffffffffffff1673ffffffffffffffffffffffffffffffffffffffff16815260200190815260200160002060009054906101000a900460ff16151514611aee57600080fd5b8160001515600982604051611b039190612425565b908152602001604051809103902060009054906101000a900460ff16151514611b2b57600080fd5b600360405180610100016040528060015481526020013373ffffffffffffffffffffffffffffffffffffffff16815260200187815260200186815260200185815260200184815260200160008152602001600081525090806001815401808255809150506001900390600052602060002090600802016000909190919091506000820151816000015560208201518160010160006101000a81548173ffffffffffffffffffffffffffffffffffffffff021916908373ffffffffffffffffffffffffffffffffffffffff1602179055506040820151816002019080519060200190611c17929190611fd6565b506060820151816003019080519060200190611c34929190611fd6565b506080820151816004019080519060200190611c51929190611fd6565b5060a0820151816005019080519060200190611c6e929190611fd6565b5060c0820151816006015560e0820151816007015550506001600860003373ffffffffffffffffffffffffffffffffffffffff1673ffffffffffffffffffffffffffffffffffffffff16815260200190815260200160002060006101000a81548160ff0219169083151502179055506001600984604051611cef9190612425565b908152602001604051809103902060006101000a81548160ff021916908315150217905550600154600584604051611d279190612425565b908152602001604051809103902081905550600154600460003373ffffffffffffffffffffffffffffffffffffffff1673ffffffffffffffffffffffffffffffffffffffff1681526020019081526020016000208190555082600a600060015481526020019081526020016000209080519060200190611da8929190611fd6565b5060016000815480929190611dbc90612901565b91905055507ff0a5e3218720ff98a346fdc2ed74b1bf7824dc56423d24ab218be30b09ae70b38333604051611df29291906124b6565b60405180910390a15050505050565b6060600c60008373ffffffffffffffffffffffffffffffffffffffff1673ffffffffffffffffffffffffffffffffffffffff168152602001908152602001600020805480602002602001604051908101604052809291908181526020018280548015611e8c57602002820191906000526020600020905b815481526020019060010190808311611e78575b50505050509050919050565b600b6020528160005260406000208181548110611eb457600080fd5b90600052602060002001600091509150505481565b806006600082815260200190815260200160002060009054906101000a900473ffffffffffffffffffffffffffffffffffffffff1673ffffffffffffffffffffffffffffffffffffffff163373ffffffffffffffffffffffffffffffffffffffff1614611f3557600080fd5b600160028381548110611f71577f4e487b7100000000000000000000000000000000000000000000000000000000600052603260045260246000fd5b906000526020600020906008020160070160006101000a81548160ff0219169083151502179055507fa7510b9f06bca625a2290e8871362d0ccc23a2b155fc82b80c66cf8c285c73238242604051611fca92919061270b565b60405180910390a15050565b828054611fe29061289e565b90600052602060002090601f016020900481019282612004576000855561204b565b82601f1061201d57805160ff191683800117855561204b565b8280016001018555821561204b579182015b8281111561204a57825182559160200191906001019061202f565b5b509050612058919061205c565b5090565b5b8082111561207557600081600090555060010161205d565b5090565b600061208c61208784612759565b612734565b9050828152602081018484840111156120a457600080fd5b6120af848285612832565b509392505050565b6000813590506120c6816129e8565b92915050565b600082601f8301126120dd57600080fd5b81356120ed848260208601612079565b91505092915050565b600081359050612105816129ff565b92915050565b60006020828403121561211d57600080fd5b600061212b848285016120b7565b91505092915050565b6000806040838503121561214757600080fd5b6000612155858286016120b7565b9250506020612166858286016120f6565b9150509250929050565b60006020828403121561218257600080fd5b600082013567ffffffffffffffff81111561219c57600080fd5b6121a8848285016120cc565b91505092915050565b600080604083850312156121c457600080fd5b600083013567ffffffffffffffff8111156121de57600080fd5b6121ea858286016120cc565b925050602083013567ffffffffffffffff81111561220757600080fd5b612213858286016120cc565b9150509250929050565b6000806000806080858703121561223357600080fd5b600085013567ffffffffffffffff81111561224d57600080fd5b612259878288016120cc565b945050602085013567ffffffffffffffff81111561227657600080fd5b612282878288016120cc565b935050604085013567ffffffffffffffff81111561229f57600080fd5b6122ab878288016120cc565b925050606085013567ffffffffffffffff8111156122c857600080fd5b6122d4878288016120cc565b91505092959194509250565b6000602082840312156122f257600080fd5b6000612300848285016120f6565b91505092915050565b60006123158383612407565b60208301905092915050565b61232a816127ea565b82525050565b600061233b8261279a565b61234581856127bd565b93506123508361278a565b8060005b838110156123815781516123688882612309565b9750612373836127b0565b925050600181019050612354565b5085935050505092915050565b612397816127fc565b82525050565b60006123a8826127a5565b6123b281856127ce565b93506123c2818560208601612841565b6123cb816129d7565b840191505092915050565b60006123e1826127a5565b6123eb81856127df565b93506123fb818560208601612841565b80840191505092915050565b61241081612828565b82525050565b61241f81612828565b82525050565b600061243182846123d6565b915081905092915050565b60006020820190506124516000830184612321565b92915050565b600060208201905081810360008301526124718184612330565b905092915050565b600060208201905061248e600083018461238e565b92915050565b600060208201905081810360008301526124ae818461239d565b905092915050565b600060408201905081810360008301526124d0818561239d565b90506124df6020830184612321565b9392505050565b600060c0820190508181036000830152612500818961239d565b90508181036020830152612514818861239d565b90506125236040830187612321565b8181036060830152612535818661239d565b90506125446080830185612416565b61255160a0830184612416565b979650505050505050565b60006060820190508181036000830152612576818661239d565b9050818103602083015261258a818561239d565b90506125996040830184612416565b949350505050565b60006020820190506125b66000830184612416565b92915050565b60006040820190506125d16000830185612416565b6125de6020830184612321565b9392505050565b6000610100820190506125fb600083018b612416565b612608602083018a612321565b818103604083015261261a818961239d565b9050818103606083015261262e818861239d565b90508181036080830152612642818761239d565b905081810360a0830152612656818661239d565b905061266560c0830185612416565b61267260e0830184612416565b9998505050505050505050565b600061010082019050612695600083018b612416565b81810360208301526126a7818a61239d565b90506126b66040830189612321565b6126c36060830188612416565b6126d06080830187612416565b6126dd60a0830186612416565b81810360c08301526126ef818561239d565b90506126fe60e083018461238e565b9998505050505050505050565b60006040820190506127206000830185612416565b61272d6020830184612416565b9392505050565b600061273e61274f565b905061274a82826128d0565b919050565b6000604051905090565b600067ffffffffffffffff821115612774576127736129a8565b5b61277d826129d7565b9050602081019050919050565b6000819050602082019050919050565b600081519050919050565b600081519050919050565b6000602082019050919050565b600082825260208201905092915050565b600082825260208201905092915050565b600081905092915050565b60006127f582612808565b9050919050565b60008115159050919050565b600073ffffffffffffffffffffffffffffffffffffffff82169050919050565b6000819050919050565b82818337600083830152505050565b60005b8381101561285f578082015181840152602081019050612844565b8381111561286e576000848401525b50505050565b600061287f82612828565b915060008214156128935761289261294a565b5b600182039050919050565b600060028204905060018216806128b657607f821691505b602082108114156128ca576128c9612979565b5b50919050565b6128d9826129d7565b810181811067ffffffffffffffff821117156128f8576128f76129a8565b5b80604052505050565b600061290c82612828565b91507fffffffffffffffffffffffffffffffffffffffffffffffffffffffffffffffff82141561293f5761293e61294a565b5b600182019050919050565b7f4e487b7100000000000000000000000000000000000000000000000000000000600052601160045260246000fd5b7f4e487b7100000000000000000000000000000000000000000000000000000000600052602260045260246000fd5b7f4e487b7100000000000000000000000000000000000000000000000000000000600052604160045260246000fd5b6000601f19601f8301169050919050565b6129f1816127ea565b81146129fc57600080fd5b50565b612a0881612828565b8114612a1357600080fd5b5056fea2646970667358221220590addb4adc2b4cad435d4841786e9f756ecc61f133f6e4811a861a49c5fdfb564736f6c63430008020033",
  "immutableReferences": {},
  "source": " pragma solidity ^0.8.0;\r\n    import \"./DwitterMain.sol\";\r\n\r\n    contract DwitterManage is DwitterMain {\r\n        //upvote, report, delete functionalities\r\n    //include display function\r\n    uint256 MAX_INT = 2**256 - 1;\r\n    event upvoted(uint id, address upvoter);\r\n        event downvoted(uint id, address downvoter);\r\n    event reported(uint id, address reporter);\r\n    event deleted(uint id, uint timestamp);\r\n    event followed(uint followers, uint following);\r\n    \r\n    modifier onlyAuthor(uint id) {\r\n        require(msg.sender == dweetToAuthor[id]);\r\n        _;\r\n    }\r\n    \r\n    function getUpvotesList(address user) view public returns(uint[] memory ids) {\r\n        return upvotesList[user];  \r\n    }\r\n\r\n    function getReportsList(address user) view public returns(uint[] memory ids) {\r\n        return reportsList[user];  \r\n    }\r\n\r\n    function upvoteDweet(uint id) userExists public {\r\n        dweets[id].upvotes++;\r\n            upvotesList[msg.sender].push(id);\r\n        emit upvoted(id, msg.sender);  \r\n    }  \r\n\r\n    \r\n    function downvoteDweet(uint id) userExists public {\r\n        dweets[id].upvotes--;\r\n        uint[] memory temp = getUpvotesList(msg.sender);\r\n        for(uint i=0; i<temp.length; i++){\r\n            if(temp[i] == id){\r\n                upvotesList[msg.sender][i] = MAX_INT;\r\n            }\r\n        }\r\n        emit downvoted(id, msg.sender);    \r\n    }  \r\n    \r\n        function reportDweet(uint id) userExists public {\r\n        dweets[id].reports++;\r\n        reportsList[msg.sender].push(id);\r\n        emit reported(id, msg.sender);\r\n        if(dweets[id].reports > 10){\r\n            dweets[id].deleted = true;\r\n        }\r\n    }  \r\n    \r\n\r\n    function deleteDweet(uint id) onlyAuthor(id) public {\r\n        dweets[id].deleted = true;\r\n        emit deleted(id, block.timestamp);\r\n    }\r\n    \r\n    \r\n    function search(string memory _userName) userNameExists(_userName) view public returns(string memory _firstname, string memory _lastName, address pkey, string memory _bio, uint followers, uint following){\r\n        uint id1= userNameToId[_userName];\r\n        return(users[id1].firstname, users[id1].lastname, users[id1].pkey, users[id1].bio, users[id1].followers, users[id1].following);\r\n    }\r\n    \r\n    function followUser(uint id) userExists  public {\r\n        address toBeFollowed1= users[id].pkey;\r\n        require(msg.sender != toBeFollowed1);\r\n        users[id].followers++;\r\n\r\n        uint id1 = addressToId[msg.sender];\r\n        users[id1].following++;\r\n        emit followed(users[id].followers, users[id1].following);\r\n    }\r\n    }",
  "sourcePath": "C:/Users/Asus/Desktop/blockweb/contracts/DwitterManage.sol",
  "compiler": {
    "name": "solc",
    "version": "0.8.2+commit.661d1103.Emscripten.clang"
  },
  "schemaVersion": "3.3.4",
  "updatedAt": "2021-03-04T06:39:04.158Z",
  "networkType": "ethereum",
  "devdoc": {
    "kind": "dev",
    "methods": {},
    "version": 1
  },
  "userdoc": {
    "kind": "user",
    "methods": {},
    "version": 1
  }
}