{
  "contractName": "NameRegistry",
  "abi": [
    {
      "anonymous": false,
      "inputs": [
        {
          "indexed": false,
          "internalType": "address",
          "name": "user_address",
          "type": "address"
        },
        {
          "indexed": false,
          "internalType": "string",
          "name": "user_name",
          "type": "string"
        }
      ],
      "name": "NewUser",
      "type": "event"
    },
    {
      "inputs": [
        {
          "internalType": "address",
          "name": "",
          "type": "address"
        }
      ],
      "name": "address_to_user_id",
      "outputs": [
        {
          "internalType": "uint256",
          "name": "",
          "type": "uint256"
        }
      ],
      "stateMutability": "view",
      "type": "function",
      "constant": true
    },
    {
      "inputs": [
        {
          "internalType": "uint256",
          "name": "",
          "type": "uint256"
        }
      ],
      "name": "id_to_person",
      "outputs": [
        {
          "internalType": "uint256",
          "name": "user_id",
          "type": "uint256"
        },
        {
          "internalType": "address",
          "name": "user_address",
          "type": "address"
        },
        {
          "internalType": "string",
          "name": "user_name",
          "type": "string"
        }
      ],
      "stateMutability": "view",
      "type": "function",
      "constant": true
    },
    {
      "inputs": [],
      "name": "user_counter",
      "outputs": [
        {
          "internalType": "uint256",
          "name": "",
          "type": "uint256"
        }
      ],
      "stateMutability": "view",
      "type": "function",
      "constant": true
    },
    {
      "inputs": [
        {
          "internalType": "uint256",
          "name": "",
          "type": "uint256"
        }
      ],
      "name": "user_ids",
      "outputs": [
        {
          "internalType": "uint256",
          "name": "",
          "type": "uint256"
        }
      ],
      "stateMutability": "view",
      "type": "function",
      "constant": true
    },
    {
      "inputs": [
        {
          "internalType": "string",
          "name": "_name",
          "type": "string"
        }
      ],
      "name": "addUser",
      "outputs": [],
      "stateMutability": "nonpayable",
      "type": "function"
    },
    {
      "inputs": [
        {
          "internalType": "uint256",
          "name": "_id",
          "type": "uint256"
        }
      ],
      "name": "getUserById",
      "outputs": [
        {
          "components": [
            {
              "internalType": "uint256",
              "name": "user_id",
              "type": "uint256"
            },
            {
              "internalType": "address",
              "name": "user_address",
              "type": "address"
            },
            {
              "internalType": "string",
              "name": "user_name",
              "type": "string"
            }
          ],
          "internalType": "struct NameRegistry.Person",
          "name": "person",
          "type": "tuple"
        }
      ],
      "stateMutability": "view",
      "type": "function",
      "constant": true
    },
    {
      "inputs": [
        {
          "internalType": "address",
          "name": "_user",
          "type": "address"
        }
      ],
      "name": "getUserByaddress",
      "outputs": [
        {
          "components": [
            {
              "internalType": "uint256",
              "name": "user_id",
              "type": "uint256"
            },
            {
              "internalType": "address",
              "name": "user_address",
              "type": "address"
            },
            {
              "internalType": "string",
              "name": "user_name",
              "type": "string"
            }
          ],
          "internalType": "struct NameRegistry.Person",
          "name": "person",
          "type": "tuple"
        }
      ],
      "stateMutability": "view",
      "type": "function",
      "constant": true
    },
    {
      "inputs": [],
      "name": "getMyDetails",
      "outputs": [
        {
          "components": [
            {
              "internalType": "uint256",
              "name": "user_id",
              "type": "uint256"
            },
            {
              "internalType": "address",
              "name": "user_address",
              "type": "address"
            },
            {
              "internalType": "string",
              "name": "user_name",
              "type": "string"
            }
          ],
          "internalType": "struct NameRegistry.Person",
          "name": "person",
          "type": "tuple"
        }
      ],
      "stateMutability": "view",
      "type": "function",
      "constant": true
    }
  ],
  "bytecode": "0x608060405234801561001057600080fd5b50610e9d806100206000396000f3fe608060405234801561001057600080fd5b50600436106100885760003560e01c8063639102e91161005b578063639102e9146101275780636ed6da9e14610157578063b164f9d414610187578063cb706c94146101b957610088565b806312fdd2bd1461008d57806318b8275a146100bd57806325892088146100d9578063431bbb7e14610109575b600080fd5b6100a760048036038101906100a291906109b2565b6101d7565b6040516100b49190610b73565b60405180910390f35b6100d760048036038101906100d291906109db565b610335565b005b6100f360048036038101906100ee9190610a1c565b6104b7565b6040516101009190610b95565b60405180910390f35b6101116104db565b60405161011e9190610b73565b60405180910390f35b610141600480360381019061013c91906109b2565b610637565b60405161014e9190610b95565b60405180910390f35b610171600480360381019061016c9190610a1c565b61064f565b60405161017e9190610b73565b60405180910390f35b6101a1600480360381019061019c9190610a1c565b61076e565b6040516101b093929190610bb0565b60405180910390f35b6101c1610840565b6040516101ce9190610b95565b60405180910390f35b6101df610846565b60026000600360008573ffffffffffffffffffffffffffffffffffffffff1673ffffffffffffffffffffffffffffffffffffffff168152602001908152602001600020548152602001908152602001600020604051806060016040529081600082015481526020016001820160009054906101000a900473ffffffffffffffffffffffffffffffffffffffff1673ffffffffffffffffffffffffffffffffffffffff1673ffffffffffffffffffffffffffffffffffffffff1681526020016002820180546102ac90610cef565b80601f01602080910402602001604051908101604052809291908181526020018280546102d890610cef565b80156103255780601f106102fa57610100808354040283529160200191610325565b820191906000526020600020905b81548152906001019060200180831161030857829003601f168201915b5050505050815250509050919050565b60008081548092919061034790610d52565b91905055506000604051806060016040528060005481526020013373ffffffffffffffffffffffffffffffffffffffff168152602001838152509050600160005490806001815401808255809150506001900390600052602060002001600090919091909150558060026000805481526020019081526020016000206000820151816000015560208201518160010160006101000a81548173ffffffffffffffffffffffffffffffffffffffff021916908373ffffffffffffffffffffffffffffffffffffffff160217905550604082015181600201908051906020019061043092919061087d565b50905050600054600360003373ffffffffffffffffffffffffffffffffffffffff1673ffffffffffffffffffffffffffffffffffffffff168152602001908152602001600020819055507ffa327e9a92777f9e2f9789db1c446a1826dabd3c4b24e2c1c9fe45914eaabbf233836040516104ab929190610b43565b60405180910390a15050565b600181815481106104c757600080fd5b906000526020600020016000915090505481565b6104e3610846565b60026000600360003373ffffffffffffffffffffffffffffffffffffffff1673ffffffffffffffffffffffffffffffffffffffff168152602001908152602001600020548152602001908152602001600020604051806060016040529081600082015481526020016001820160009054906101000a900473ffffffffffffffffffffffffffffffffffffffff1673ffffffffffffffffffffffffffffffffffffffff1673ffffffffffffffffffffffffffffffffffffffff1681526020016002820180546105b090610cef565b80601f01602080910402602001604051908101604052809291908181526020018280546105dc90610cef565b80156106295780601f106105fe57610100808354040283529160200191610629565b820191906000526020600020905b81548152906001019060200180831161060c57829003601f168201915b505050505081525050905090565b60036020528060005260406000206000915090505481565b610657610846565b60026000838152602001908152602001600020604051806060016040529081600082015481526020016001820160009054906101000a900473ffffffffffffffffffffffffffffffffffffffff1673ffffffffffffffffffffffffffffffffffffffff1673ffffffffffffffffffffffffffffffffffffffff1681526020016002820180546106e590610cef565b80601f016020809104026020016040519081016040528092919081815260200182805461071190610cef565b801561075e5780601f106107335761010080835404028352916020019161075e565b820191906000526020600020905b81548152906001019060200180831161074157829003601f168201915b5050505050815250509050919050565b60026020528060005260406000206000915090508060000154908060010160009054906101000a900473ffffffffffffffffffffffffffffffffffffffff16908060020180546107bd90610cef565b80601f01602080910402602001604051908101604052809291908181526020018280546107e990610cef565b80156108365780601f1061080b57610100808354040283529160200191610836565b820191906000526020600020905b81548152906001019060200180831161081957829003601f168201915b5050505050905083565b60005481565b604051806060016040528060008152602001600073ffffffffffffffffffffffffffffffffffffffff168152602001606081525090565b82805461088990610cef565b90600052602060002090601f0160209004810192826108ab57600085556108f2565b82601f106108c457805160ff19168380011785556108f2565b828001600101855582156108f2579182015b828111156108f15782518255916020019190600101906108d6565b5b5090506108ff9190610903565b5090565b5b8082111561091c576000816000905550600101610904565b5090565b600061093361092e84610c13565b610bee565b90508281526020810184848401111561094b57600080fd5b610956848285610cad565b509392505050565b60008135905061096d81610e39565b92915050565b600082601f83011261098457600080fd5b8135610994848260208601610920565b91505092915050565b6000813590506109ac81610e50565b92915050565b6000602082840312156109c457600080fd5b60006109d28482850161095e565b91505092915050565b6000602082840312156109ed57600080fd5b600082013567ffffffffffffffff811115610a0757600080fd5b610a1384828501610973565b91505092915050565b600060208284031215610a2e57600080fd5b6000610a3c8482850161099d565b91505092915050565b610a4e81610c71565b82525050565b610a5d81610c71565b82525050565b6000610a6e82610c44565b610a788185610c4f565b9350610a88818560208601610cbc565b610a9181610e28565b840191505092915050565b6000610aa782610c44565b610ab18185610c60565b9350610ac1818560208601610cbc565b610aca81610e28565b840191505092915050565b6000606083016000830151610aed6000860182610b25565b506020830151610b006020860182610a45565b5060408301518482036040860152610b188282610a63565b9150508091505092915050565b610b2e81610ca3565b82525050565b610b3d81610ca3565b82525050565b6000604082019050610b586000830185610a54565b8181036020830152610b6a8184610a9c565b90509392505050565b60006020820190508181036000830152610b8d8184610ad5565b905092915050565b6000602082019050610baa6000830184610b34565b92915050565b6000606082019050610bc56000830186610b34565b610bd26020830185610a54565b8181036040830152610be48184610a9c565b9050949350505050565b6000610bf8610c09565b9050610c048282610d21565b919050565b6000604051905090565b600067ffffffffffffffff821115610c2e57610c2d610df9565b5b610c3782610e28565b9050602081019050919050565b600081519050919050565b600082825260208201905092915050565b600082825260208201905092915050565b6000610c7c82610c83565b9050919050565b600073ffffffffffffffffffffffffffffffffffffffff82169050919050565b6000819050919050565b82818337600083830152505050565b60005b83811015610cda578082015181840152602081019050610cbf565b83811115610ce9576000848401525b50505050565b60006002820490506001821680610d0757607f821691505b60208210811415610d1b57610d1a610dca565b5b50919050565b610d2a82610e28565b810181811067ffffffffffffffff82111715610d4957610d48610df9565b5b80604052505050565b6000610d5d82610ca3565b91507fffffffffffffffffffffffffffffffffffffffffffffffffffffffffffffffff821415610d9057610d8f610d9b565b5b600182019050919050565b7f4e487b7100000000000000000000000000000000000000000000000000000000600052601160045260246000fd5b7f4e487b7100000000000000000000000000000000000000000000000000000000600052602260045260246000fd5b7f4e487b7100000000000000000000000000000000000000000000000000000000600052604160045260246000fd5b6000601f19601f8301169050919050565b610e4281610c71565b8114610e4d57600080fd5b50565b610e5981610ca3565b8114610e6457600080fd5b5056fea264697066735822122025530b33d5ba17589d125ff5a09ffc482392e55496b769c022296f65d0dc48a764736f6c63430008020033",
  "immutableReferences": {},
  "source": "pragma solidity ^0.8.0;\r\n\r\ncontract NameRegistry {\r\n    \r\n    // state variables\r\n    struct Person{\r\n        uint user_id;\r\n        address user_address;\r\n        string user_name;\r\n    }\r\n    uint public user_counter;\r\n    uint[] public user_ids;\r\n    mapping(uint=>Person) public id_to_person;\r\n    mapping(address=>uint) public address_to_user_id;\r\n    event NewUser(address user_address,string user_name);\r\n    \r\n    // Function declarations\r\n    \r\n    function addUser(string memory _name) public {\r\n        user_counter++;\r\n        Person memory new_person = Person(user_counter, msg.sender, _name);\r\n        user_ids.push(user_counter);\r\n        id_to_person[user_counter] = new_person;\r\n        address_to_user_id[msg.sender] = user_counter;\r\n        emit NewUser(msg.sender,_name);\r\n    }\r\n    \r\n    function getUserById(uint _id) public view returns(Person memory person) {\r\n        return id_to_person[_id];\r\n    }\r\n    \r\n    function getUserByaddress(address _user) public view returns(Person memory person) {\r\n        return id_to_person[address_to_user_id[_user]];\r\n    }\r\n    \r\n    function getMyDetails() public view returns(Person memory person) {\r\n        return id_to_person[address_to_user_id[msg.sender]];\r\n    }\r\n    \r\n}",
  "sourcePath": "C:/Users/Asus/Desktop/blockweb/contracts/NameRegistry.sol",
  "compiler": {
    "name": "solc",
    "version": "0.8.2+commit.661d1103.Emscripten.clang"
  },
  "schemaVersion": "3.3.4",
  "updatedAt": "2021-03-04T06:39:04.132Z",
  "networkType": "ethereum",
  "devdoc": {
    "kind": "dev",
    "methods": {},
    "version": 1
  },
  "userdoc": {
    "kind": "user",
    "methods": {},
    "version": 1
  }
}